:0300000002112EBC
:0100030032CA
:03000B00020714D5
:0100130032BA
:01001B0032B2
:0100230032AA
:03002B00020724A5
:10002E00C000788500D8FDD00022C000C00179281C
:10003E007868D8FED9FADAF6D001D00022D294121E
:10004E00002EC29422A2E79283A2E69282A2E592A9
:10005E0081A2E4928012004B12002EA2E39283A2A0
:10006E00E29282A2E19281A2E0928012004B22D211
:10007E0093020053C293020053C294C0027A281214
:10008E000038D0027433120082743312008274323C
:10009E001200827428120082740C120082740112F3
:1000AE000082C0027A02120038D00222E493600667
:1000BE0012007DA380F62244404480020082C0E0FC
:1000CE00E8C4540F443012007DE8540F443012003F
:0400DE007DD0E022CF
:1000E200C0E0C0D0C000C001C002E4F53CF53DF55F
:1000F2003EF53FF5407A20E533A2E779047830E611
:1001020033F608D9FA7905783CE636D4F608D9F9F7
:10011200DAE5D002D001D000D0D0D0E022C0E0C0D9
:10012200D0C000C001C002E4F53CF53DF53EF53F0C
:10013200F5407A20E533A2E779047830E633F60811
:10014200D9FA7905783CC0D0E6243320E70224D0DE
:1001520020E30224FDD0D033F608D9EADAD6D00261
:10016200D001D000D0D0D0E022C0E0C0D0C000C0CA
:1001720001C0027A207905C37840E613C0D030E787
:100182000224D030E30224FDF618D0D0D9EC790451
:100192007833E613F618D9FADADBD002D001D000B0
:1001A200D0D0D0E022C0E0C0D0E5302534F530E533
:1001B200313535F531E5323536F532E5333537F55A
:1001C20033D0D0D0E022C0E0C0D0E5382534F538B5
:1001D200E5393535F539E53A3536F53AE53B353722
:1001E200F53BD0D0D0E022C0E0C0D0C3E53095349A
:1001F200F530E5319535F531E5329536F532E533B1
:100202009537F533D0D0D0E022C0E0C0D0C3E53876
:100212009534F538E5399535F539E53A9536F53AB7
:10022200E53B9537F53BD0D0D0E022C0E0C0D0C34B
:10023200E5349538F534E5359539F535E536953AB1
:10024200F536E537953BF537D0D0D0E022C0E0C097
:10025200D0C3E5309534E5319535E5329536E53351
:1002620095379200D0D0D0E022C0E0C0D0C3E534B0
:100272009530E5359531E5369532E537953392007F
:10028200D0D0D0E022C0E0C0D0C200C3E534953067
:100292007014E5359531700EE53695327008E53704
:1002A20095337002D200D0D0D0E022120287200013
:1002B2000302026B2212028720000302024F22C0B5
:1002C200E0C0F0C0D0C000C001C002C003E530856C
:1002D20034F0A4F8A9F0E5318534F0A429F9E43525
:1002E200F0FAE5308535F0A429F9E5F03AFAE4337D
:1002F200FBE5328534F0A42AFAE5F03BFBE53185D3
:1003020035F0A42AFAE5F03BFBE5308536F0A42A65
:10031200FAE5F03BFBE5338534F0A42BFBE53285AF
:1003220035F0A42BFBE5318536F0A42BFBE53085B7
:1003320037F0A42BFB8B338A3289318830D003D03B
:1003420002D001D000D0D0D0F0D0E022C0E0C0F086
:10035200C0D0C000C001C002C003E5388534F0A49B
:10036200F8A9F0E5398534F0A429F9E435F0FAE585
:10037200388535F0A429F9E5F03AFAE433FBE53A99
:100382008534F0A42AFAE5F03BFBE5398535F0A483
:100392002AFAE5F03BFBE5388536F0A42AFAE5F0C7
:1003A2003BFBE53B8534F0A42BFBE53A8535F0A415
:1003B2002BFBE5398536F0A42BFBE5388537F0A415
:1003C2002BFB8B3B8A3A89398838D003D002D00183
:1003D200D000D0D0D0F0D0E022C0E0C0D0C000C069
:1003E20001C002C003C0047C20E4F8F9FAFBC3E5B3
:1003F2003033F530E53133F531E53233F532E5337B
:1004020033F533E833F8E933F9EA33FAEB33FBC374
:10041200E89534E99535EA9536EB95374013E8953A
:1004220034F8E99535F9EA9536FAEB9537FB43301E
:1004320001DCBBD004D003D002D001D000D0D0D098
:10044200E022C0E0C0D0C000C001C002C003C004AE
:100452007C20E4F8F9FAFBC3E53833F538E53933A3
:10046200F539E53A33F53AE53B33F53BE833F8E95C
:1004720033F9EA33FAEB33FBC3E89534E99535EA0D
:100482009536EB953740AAE89534F8E99535F9EABF
:100492009536FAEB9537FB433801DCBBD004D00329
:1004A200D002D001D000D0D0D0E0225265666C6F6D
:1004B20077204F76656E3A202020200053746172B7
:1004C200742F436F6E6669677572653F00536F6183
:1004D2006B2054696D653A2000536F616B2054653F
:1004E2006D703A20005265666C2054696D653A2041
:1004F200005265666C2054656D703A200054455375
:1005020054204D45535341474520002020202020B0
:1005120020202020202020202020200050726568EA
:1005220065617400536F616B0052616D7020746F6E
:10053200205065616B005265666C6F7700436F6F88
:100542006C696E670046696E69736865642100456F
:100552004D455247454E43592053544F5000456D27
:10056200657267656E63792053746F70210D0A009E
:10057200792076616C2066726F6D20736F616B20DB
:1005820074656D703A2000792076616C2066726F16
:100592006D207265666C6F772074656D703A20000D
:1005A200536F616B2054656D703A20005265666C22
:1005B2006F772054656D703A20002121212121217D
:1005C20021212100C2AF75C7AA75C755439F017586
:1005D200C7AA75C75543A50175AF2275A73F75A672
:1005E2008075AEFF75C7AA75C75543A40175AF21C3
:1005F20075A73F75A680854BAE75C7AA75C75543CB
:10060200A40175A681854CAE75C7AA75C75543A4CA
:100612000175A682854DAE75C7AA75C75543A4015B
:1006220075A683854EAE75C7AA75C75543A40175D5
:10063200A68475AE5575C7AA75C75543A40175A69C
:100642008575AEAA75C7AA75C75543A40175C7AA11
:1006520075C75553A5FE75C7AA75C755539FFED2D8
:10066200AF22903F84E493B4551DA3E493B4AA1738
:10067200903F80E493F54BA3E493F54CA3E493F508
:100682004DA3E493F54E22754B50754C0F754D7882
:10069200754E0F223099FDC299F59922E4936006B6
:1006A200120696A380F62275F06484443012007D0F
:1006B200E5F075F00A84443012007DE5F044301212
:1006C200007D2275F064844430120696E5F075F0E0
:1006D2000A844430120696E5F0443012069622430C
:1006E2008E08E58954F04401F589758CF0758A2CE1
:1006F200D2A9D28C2275C80075CDBF75CC2843C94A
:100702008075CBBF75CA28E4F54FF550439B80D264
:10071200CA22C28C758CF0758A2CD28C300502B23A
:100722008432C2CFC0E0C0D00553054FE54F7002FE
:10073200055030021DE553B40A187553000557C31E
:10074200E5589557B39292E557B46406755700E49D
:10075200F553E54FB4E82DE550B40328C20512085D
:10076200471200E21208BAE4F54FF550300306E5ED
:10077200552401F55530040CE5542401F554E55691
:100782002401F556D0D0D0E032C0E074011412003A
:10079200C5D0E0C000A83F1200CCD000C000A83EE7
:1007A2001200CCD000C0E0742E12007DD0E0C00058
:1007B200A83D1200CCD000C000A83C1200CCD00052
:1007C2002279C87868D8FED9FA438E10438780759B
:1007D200985253C4DF53890F438920758DF7D28E07
:1007E200227530007531007532007533007D647EEC
:1007F2006412082C75370075360089358834C0308C
:100802007530FC7531857532007533001202B720E0
:100812000007D0301201A7DDD8DED6753700753655
:10082200007535008E341203DB22C2EFD2EE30EFB8
:10083200FDE5C2540FF8E5C3C4C0E0540FF9D0E09F
:1008420054F048F82253E8F043E80012082C884696
:10085200894753E8F043E8071207E3883089317586
:10086200320075330075341475355075360075379E
:10087200001202C18546348547357536007537004A
:100882001203DB753450753500753600753700126A
:1008920002C175346075355B753603753700120118
:1008A200A722C0E0E8C4540F4430120696E8540F61
:1008B2004430120696D0E022C000A83F1208A4D00D
:1008C20000C000A83E1208A4D000742E120696C0E2
:1008D20000A83D1208A4D000C000A83C1208A4D071
:1008E20000E54C1206C5E54B1206C5E54E1206C5DB
:1008F200E54D1206C5740D120696740A120696226A
:1009020075AC0075AD0075B30075B40075B10075B6
:10091200B200D281D293D2AF1206E11206F7C00220
:100922007A32120038D002438E1043878075985273
:1009320053C4DF53890F438920758DF7D28E43B399
:100942008253B47D53E8F043E80775F60043F6811D
:1009520043E101C201C2027400F549754B50754C66
:100962000F754D78754E0F75480075540075580017
:10097200755300755500755600C203C204C205D2F4
:10098200CA75300075310075320075330022C2928B
:10099200C203C202C2017548007554007553007546
:1009A2005500755600755800755700753000753141
:1009B20000753200753300C204021139C0027A3266
:1009C200120038D002D208D209D20AD20BD20CD2EB
:1009D20095C293C281C282C283C2802095028003E3
:1009E200020A35C0027A32120038D0022095028003
:1009F20003020A35D293D281D282D283D280C293A9
:100A0200A2959208D293C281A2959209D281C28202
:100A1200A295920AD282C283A295920BD283C280FD
:100A2200A295920CD280200C028003020A35D205D4
:100A3200120990E5487534C07535C675362D75377F
:100A42000012026B20007475340075359F753624D0
:100A520075370012026B300062755400D20575586A
:100A620000C0E07401141200C7D0E0C083C082C08D
:100A7200E09005511200BAD0E0D082D083C083C08A
:100A820082C0E090050D1200BAD0E0D082D083C0BF
:100A9200E0740E141200C5D0E0E5541206A9E55622
:100AA200C0E0740E141200C7D0E01206A91200E2D0
:100AB20012078BE554B40AA4120990B40002800311
:100AC200020BBF75585AC0E07401141200C7D0E07F
:100AD200C083C082C0E090051E1200BAD0E0D0826E
:100AE200D083C083C082C0E090050D1200BAD0E06E
:100AF200D082D083C0E0740E141200C5D0E0E55459
:100B02001206A9E556C0E0740E141200C7D0E01216
:100B120006A91200E212078BD203E555B43C157503
:100B220034207535A17536077537001202AD2000E5
:100B320003020990854B3475350075360075370010
:100B4200753810753927753A00753B0012034E85CA
:100B52003834853935853A36853B3775389075395D
:100B6200D0753A03753B0012022D12026B3000035E
:100B720075580F7534C07535C675362D7537001228
:100B8200026B200035854B3475350075360075379C
:100B920000753810753927753A00753B0012034EFF
:100BA200853834853935853A36853B3712026B30C4
:100BB2000008754801755400D205020E5FB4016544
:100BC200755801C0E07401141200C7D0E0C083C0A0
:100BD20082C0E09005261200BAD0E0D082D083C055
:100BE20083C082C0E090050D1200BAD0E0D082D05E
:100BF20083C0E0740E141200C5D0E0E5541206A9B9
:100C0200E556C0E0740E141200C7D0E01206A91215
:100C120000E212078BE554B54C0875480275540082
:100C2200D205020E5FB402028003020D0D75585AFE
:100C3200C0E07401141200C7D0E0C083C082C0E0DB
:100C420090052B1200BAD0E0D082D083C083C0823C
:100C5200C0E090050D1200BAD0E0D082D083C0E08F
:100C6200740E141200C5D0E0E5541206A9E556C070
:100C7200E0740E141200C7D0E01206A91200E212AC
:100C8200078B854D3475350075360075370075381C
:100C920010753927753A00753B0012034E853834BA
:100CA200853935853A36853B377538A0753986756D
:100CB2003A01753B0012022D12026B300003755887
:100CC200237534C07535C675362D75370012026B23
:100CD200200035854D347535007536007537007541
:100CE2003810753927753A00753B0012034E853866
:100CF20034853935853A36853B3712026B30000828
:100D0200754803755400D205020E5FB40365755829
:100D12000AC0E07401141200C7D0E0C083C082C0D0
:100D2200E09005381200BAD0E0D082D083C083C0F0
:100D320082C0E090050D1200BAD0E0D082D083C00C
:100D4200E0740E141200C5D0E0E5541206A9E5566F
:100D5200C0E0740E141200C7D0E01206A91200E21D
:100D620012078BE554B54E08754804755400D20538
:100D7200020E5FB40472755800C0E07401141200D0
:100D8200C7D0E0C083C082C0E090053F1200BAD055
:100D9200E0D082D083C083C082C0E090050D1200F3
:100DA200BAD0E0D082D083C0E0740E141200C5D055
:100DB200E0E5541206A9E556C0E0740E141200C70D
:100DC200D0E01206A91200E212078B7534207535A5
:100DD200A175360775370012024F300006754805B7
:100DE200755400D205020E5FB4056CC0E0740114A4
:100DF2001200C7D0E0C083C082C0E0900547120055
:100E0200BAD0E0D082D083C083C082C0E090050D0A
:100E12001200BAD0E0D082D083C0E0740E14120067
:100E2200C5D0E0E5541206A9E556C0E0740E1412CE
:100E320000C7D0E01206A9C083C082C0E090050DB1
:100E42001200BAD0E0D082D083E554B405067548CA
:100E520000120990020E5F7548001209900209BE45
:100E62002212066475580020965CC0027A32120083
:100E720038D0022096503096FDE54AB4021774002D
:100E8200F54A743CF54C741EF54E748CF54B74DCCB
:100E9200F54D020EC8B401177402F54A745AF54CA6
:100EA2007428F54E74C8F54B74F0F54D020EC874F3
:100EB20001F54A744BF54C742DF54E74AAF54B743A
:100EC200E6F54D020EC8E549D208D209D20AD20B84
:100ED200D20CD295C293C281C282C283C2802095B3
:100EE200028003020F38C0027A32120038D0022088
:100EF20095028003020F38D293D281D282D283D25A
:100F020080C293A2959208D293C281A2959209D2ED
:100F120081C282A295920AD282C283A295920BD2F8
:100F220083C280A295920CD2802009028003020F14
:100F32003804F549D281D208D209D20AD20BD20C96
:100F4200D295C293C281C282C283C280209502809E
:100F520003020FC0C0027A32120038D0022095027A
:100F62008003020FC0D293D281D282D283D280C2B6
:100F720093A2959208D293C281A2959209D281C27C
:100F820082A295920AD282C283A295920BD283C286
:100F920080A295920CD280200B028003020FC0B473
:100FA200000FE54C2405F54CB47D13740FF54C800D
:100FB2000DE54E2405F54EB43204740FF54ED208F9
:100FC200D209D20AD20BD20CD295C293C281C2826A
:100FD200C283C2802095028003021048C0027A3286
:100FE200120038D0022095028003021048D293D218
:100FF20081D282D283D280C293A2959208D293C226
:1010020081A2959209D281C282A295920AD282C20B
:1010120083A295920BD283C280A295920CD2802099
:101022000A028003021048B4000FE54B2405F54B79
:10103200B4F5137450F54B800DE54D2405F54DB410
:10104200F5047450F54DD282E549B40069C0E074EC
:1010520001141200C7D0E0C083C082C0E09004DB5C
:101062001200BAD0E0D082D083E54B1206A9C08329
:10107200C082C0E090050D1200BAD0E0D082D083C9
:10108200C0E07401141200C5D0E0C083C082C0E089
:101092009004CF1200BAD0E0D082D083E54C120681
:1010A200A9C083C082C0E090050D1200BAD0E0D082
:1010B20082D08302112AB40169C0E07401141200C3
:1010C200C7D0E0C083C082C0E09004F31200BAD05F
:1010D200E0D082D083E54D1206A9C083C082C0E071
:1010E20090050D1200BAD0E0D082D083C0E0740126
:1010F200141200C5D0E0C083C082C0E09004E712A1
:1011020000BAD0E0D082D083E54E1206A9C083C0D7
:1011120082C0E090050D1200BAD0E0D082D08302E6
:10112200112A75490002112A1205C62275817F1201
:101132000902120087C292C0E07401141200C7D0E3
:10114200E0C083C082C0E09004AD1200BAD0E0D00B
:1011520082D083C0E07401141200C5D0E0C083C005
:1011620082C0E09004BE1200BAD0E0D082D0837573
:101172005800C292D2CAD208D209D20AD20BD20CD9
:10118200D295C293C281C282C283C280209502805C
:10119200030211FCC0027A32120038D002209502FA
:1011A20080030211FCD293D281D282D283D280C236
:1011B20093A2959208D293C281A2959209D281C23A
:1011C20082A295920AD282C283A295920BD283C244
:1011D20080A295920CD28020080280030211FCD2D8
:1011E20004D205D28C753C00753D00753E00753FFA
:1011F200007540001208BA021278D293300106122A
:101202000E63021178D208D209D20AD20BD20CD2C2
:1012120095C293C281C282C283C28020950280039A
:10122200021273C0027A32120038D0022095028074
:1012320003021273D293D281D282D283D280C2931A
:10124200A2959208D293C281A2959209D281C282BA
:10125200A295920AD282C283A295920BD283C280B5
:10126200A295920CD280200902800302127302120C
:10127200BAD281021178C201D202C0E07401141202
:1012820000C7D0E0C083C082C0E090050D1200BA52
:10129200D0E0D082D083C0E07401141200C5D0E047
:1012A200C083C082C0E090050D1200BAD0E0D082A7
:1012B200D0831209BE120990D20102117802112EB6
:00000001FF
