:03000000020E6C81
:0100030032CA
:03000B0002058E5D
:0100130032BA
:01001B0032B2
:0100230032AA
:03002B0002059E2D
:10002E00C000788500D8FDD00022C000C00179281C
:10003E007868D8FED9FADAF6D001D00022D294121E
:10004E00002EC29422A2E79283A2E69282A2E592A9
:10005E0081A2E4928012004B12002EA2E39283A2A0
:10006E00E29282A2E19281A2E0928012004B22D211
:10007E0093020053C293020053C294C0027A281214
:10008E000038D0027433120082743312008274323C
:10009E001200827428120082740C120082740112F3
:1000AE000082C0027A02120038D00222E493600667
:1000BE0012007DA380F62244404480020082C0E0FC
:1000CE00E8C4540F443012007DE8540F443012003F
:0400DE007DD0E022CF
:1000E200C0E0C0D0C000C001C002E4F53CF53DF55F
:1000F2003EF53FF5407A20E533A2E779047830E611
:1001020033F608D9FA7905783CE636D4F608D9F9F7
:10011200DAE5D002D001D000D0D0D0E022C0E0C0D9
:10012200D0C000C001C002E4F53CF53DF53EF53F0C
:10013200F5407A20E533A2E779047830E633F60811
:10014200D9FA7905783CC0D0E6243320E70224D0DE
:1001520020E30224FDD0D033F608D9EADAD6D00261
:10016200D001D000D0D0D0E022C0E0C0D0C000C0CA
:1001720001C0027A207905C37840E613C0D030E787
:100182000224D030E30224FDF618D0D0D9EC790451
:100192007833E613F618D9FADADBD002D001D000B0
:1001A200D0D0D0E022C0E0C0D0E5302534F530E533
:1001B200313535F531E5323536F532E5333537F55A
:1001C20033D0D0D0E022C0E0C0D0C3E5309534F5C2
:1001D20030E5319535F531E5329536F532E5339531
:1001E20037F533D0D0D0E022C0E0C0D0C3E534959B
:1001F20038F534E5359539F535E536953AF536E590
:1002020037953BF537D0D0D0E022C0E0C0D0C3E56F
:10021200309534E5319535E5329536E533953792AB
:1002220000D0D0D0E022C0E0C0D0C3E5349530E5A4
:10023200359531E5369532E53795339200D0D0D0F9
:10024200E022C0E0C0D0C200C3E53495307014E5AE
:10025200359531700EE53695327008E53795337075
:1002620002D200D0D0D0E0221202442000030202C7
:10027200282212024420000302020C22C0E0C0F035
:10028200C0D0C000C001C002C003E5308534F0A474
:10029200F8A9F0E5318534F0A429F9E435F0FAE55E
:1002A200308535F0A429F9E5F03AFAE433FBE5327A
:1002B2008534F0A42AFAE5F03BFBE5318535F0A45C
:1002C2002AFAE5F03BFBE5308536F0A42AFAE5F0A0
:1002D2003BFBE5338534F0A42BFBE5328535F0A4F6
:1002E2002BFBE5318536F0A42BFBE5308537F0A4F6
:1002F2002BFB8B338A3289318830D003D002D00174
:10030200D000D0D0D0F0D0E022C0E0C0F0C0D0C049
:1003120000C001C002C003E5388534F0A4F8A9F09A
:10032200E5398534F0A429F9E435F0FAE538853564
:10033200F0A429F9E5F03AFAE433FBE53A8534F022
:10034200A42AFAE5F03BFBE5398535F0A42AFAE563
:10035200F03BFBE5388536F0A42AFAE5F03BFBE5F5
:100362003B8534F0A42BFBE53A8535F0A42BFBE565
:10037200398536F0A42BFBE5388537F0A42BFB8BAF
:100382003B8A3A89398838D003D002D001D000D0D4
:10039200D0D0F0D0E022C0E0C0D0C000C001C00286
:1003A200C003C0047C20E4F8F9FAFBC3E53033F55E
:1003B20030E53133F531E53233F532E53333F533B8
:1003C200E833F8E933F9EA33FAEB33FBC3E895345F
:1003D200E99535EA9536EB95374013E89534F8E917
:1003E2009535F9EA9536FAEB9537FB433001DCBBDC
:1003F200D004D003D002D001D000D0D0D0E022521D
:1004020065666C6F77204F76656E3A20202020005B
:1004120053746172742F436F6E6669677572653FBC
:1004220000536F616B2054696D653A2000536F6110
:100432006B2054656D703A20005265666C205469D9
:100442006D653A20005265666C2054656D703A20E5
:100452000054455354204D455353414745200020F5
:1004620020202020202020202020202020202000AA
:100472005072656865617400536F616B0052616D03
:100482007020746F205065616B005265666C6F77E7
:1004920000436F6F6C696E670046696E69736865C9
:1004A200642100454D455247454E43592053544F10
:1004B2005000456D657267656E63792053746F7085
:1004C200210D0A00792076616C2066726F6D2073AF
:1004D2006F616B2074656D703A2000792076616CD3
:1004E2002066726F6D207265666C6F772074656D21
:1004F200703A2000536F616B2054656D703A200092
:100502005265666C6F772054656D703A20003099A1
:10051200FDC299F59922E4936006120510A380F6B4
:100522002275F06484443012007DE5F075F00A848F
:10053200443012007DE5F0443012007D2275F064F3
:10054200844430120510E5F075F00A844430120537
:1005520010E5F0443012051022438E08E58954F06C
:100562004401F589758CF0758A2CD2A9D28C22753A
:10057200C80075CDBF75CC2843C98075CBBF75CA7D
:1005820028E4F54EF54F439B80D2CA22C28C758C6B
:10059200F0758A2CD28C300502B28432C2CFC0E010
:1005A200C0D00552054EE54E7002054F30021DE5E2
:1005B20052B40A187552000556C3E5579556B392C0
:1005C20092E556B46406755600E4F552E54EB4E879
:1005D2003CE54FB40337C2051206D01200E21207FF
:1005E20043E4F54EF54FE55712053F740D12051021
:1005F200740A120510300306E5542401F554300440
:100602000CE5532401F553E5552401F555D0D0D01E
:10061200E032C0E07401141200C5D0E0C000A83F6F
:100622001200CCD000C000A83E1200CCD000C0E026
:10063200742E12007DD0E0C000A83D1200CCD00084
:10064200C000A83C1200CCD0002279C87868D8FE3D
:10065200D9FA438E1043878075985253C4DF538969
:100662000F438920758DF7D28E22753000753100C7
:100672007532007533007D647E641206B5753700ED
:1006820075360089358834C0307530FC7531857512
:100692003200753300120274200007D0301201A715
:1006A200DDD8DED67537007536007535008E34120A
:1006B200039822C2EFD2EE30EFFDE5C2540FF8E507
:1006C200C3C4C0E0540FF9D0E054F048F82253E814
:1006D200F043E8001206B58846894753E8F043E83C
:1006E2000712066C88308931753200753300753413
:1006F2001475355075360075370012027E85463402
:100702008547357536007537001203987534517573
:10071200350075360075370012027E753460753506
:100722005B7536037537001201A722C0E0E8C45496
:100732000F4430120510E8540F4430120510D0E077
:1007420022C000A83F12072DD000C000A83E120709
:100752002DD000742E120510C000A83D12072DD016
:1007620000C000A83C12072DD000E54B12053FE562
:100772004A12053FE54D12053FE54C12053F740D47
:10078200120510740A1205102275AC0075AD0075C1
:10079200B30075B40075B10075B200D281D293D2A4
:1007A200AF12055B120571C0027A32120038D00214
:1007B200438E1043878075985253C4DF53890F4389
:1007C2008920758DF7D28E43B38253B47D53E8F0FE
:1007D20043E80775F60043F68143E101C201C20214
:1007E2007400F549754A50754B2D754C78754D2D31
:1007F20075480075530075570075520075540075A1
:100802005500C203C204C205D2CA75300075310058
:1008120075320075330022C292C203C202C2017550
:100822004800755300755200755400755500755790
:100832000075560075300075310075320075330051
:10084200C204020E77C0027A32120038D002D208F5
:10085200D209D20AD20BD20CD295C293C281C282E1
:10086200C283C280209546C0027A32120038D0027A
:1008720020953AD293D281D282D283D280C293A2DD
:10088200959208D293C281A2959209D281C282A284
:1008920095920AD282C283A295920BD283C280A27F
:1008A20095920CD280200C05D205120819E548B4A5
:1008B200000280030209A1755750C0E074011412AE
:1008C20000C7D0E0C083C082C0E09004721200BAB8
:1008D200D0E0D082D083C083C082C0E09004611295
:1008E20000BAD0E0D082D083C0E0740E141200C5EA
:1008F200D0E0E553120523E555C0E0740E14120052
:10090200C7D0E01205231200E2120614D203E55406
:10091200B43C157534207535A1753607753700124C
:10092200026A200003020819854A347535007536BB
:1009320000753700753810753927753A00753B0018
:1009420012030B853834853935853A36853B377540
:1009520038907539D0753A03753B001201EA1202DC
:1009620028300003755700854A3475350075360006
:10097200753700753810753927753A00753B0012C6
:10098200030B853834853935853A36853B37120273
:1009920028300008754801755300D205020C2FB4A7
:1009A2000165755701C0E07401141200C7D0E0C0A0
:1009B20083C082C0E090047A1200BAD0E0D082D024
:1009C20083C083C082C0E09004611200BAD0E0D03C
:1009D20082D083C0E0740E141200C5D0E0E5531239
:1009E2000523E555C0E0740E141200C7D0E01205CD
:1009F200231200E2120614E553B54B08754802753E
:100A02005300D205020C2FB402028003020ADD75E4
:100A12005750C0E07401141200C7D0E0C083C082F6
:100A2200C0E090047F1200BAD0E0D082D083C083AD
:100A3200C082C0E09004611200BAD0E0D082D083BC
:100A4200C0E0740E141200C5D0E0E553120523E590
:100A520055C0E0740E141200C7D0E0120523120034
:100A6200E2120614854C3475350075360075370070
:100A7200753810753927753A00753B0012030B85DE
:100A82003834853935853A36853B377538A075391E
:100A920086753A01753B001201EA12022830000302
:100AA200755700854C3475350075360075370075FD
:100AB2003810753927753A00753B0012030B8538DB
:100AC20034853935853A36853B371202283000089D
:100AD200754803755300D205020C2FB40365755790
:100AE20005C0E07401141200C7D0E0C083C082C008
:100AF200E090048C1200BAD0E0D082D083C083C0D0
:100B020082C0E09004611200BAD0E0D082D083C0EB
:100B1200E0740E141200C5D0E0E553120523E5552A
:100B2200C0E0740E141200C7D0E01205231200E2D6
:100B3200120614E553B54D08754804755300D205E5
:100B4200020C2FB40472755700C0E0740114120035
:100B5200C7D0E0C083C082C0E09004931200BAD034
:100B6200E0D082D083C083C082C0E09004611200D2
:100B7200BAD0E0D082D083C0E0740E141200C5D087
:100B8200E0E553120523E555C0E0740E141200C7C8
:100B9200D0E01205231200E21206147534207535D6
:100BA200A175360775370012020C3000067548052C
:100BB200755300D205020C2FB4056CC0E074011409
:100BC2001200C7D0E0C083C082C0E090049B120034
:100BD200BAD0E0D082D083C083C082C0E0900461EA
:100BE2001200BAD0E0D082D083C0E0740E1412009A
:100BF200C5D0E0E553120523E555C0E0740E14128A
:100C020000C7D0E0120523C083C082C0E090046117
:100C12001200BAD0E0D082D083E553B405067548FD
:100C220000120819020C2F75480012081902084711
:100C320022755700E549D208D209D20AD20BD20C4A
:100C4200D295C293C281C282C283C280209546C01D
:100C5200027A32120038D00220953AD293D281D24F
:100C620082D283D280C293A2959208D293C281A2E9
:100C7200959209D281C282A295920AD282C283A29D
:100C820095920BD283C280A295920CD28020090544
:100C920004F549D281D208D209D20AD20BD20CD29F
:100CA20095C293C281C282C283C280209560C00273
:100CB2007A32120038D002209554D293D281D28255
:100CC200D283D280C293A2959208D293C281A29576
:100CD2009209D281C282A295920AD282C283A2953D
:100CE200920BD283C280A295920CD280200B1FB4A9
:100CF200000FE54B2405F54BB45F13742DF54B80C3
:100D02000DE54D2405F54DB45F04742DF54DD20863
:100D1200D209D20AD20BD20CD295C293C281C2821C
:100D2200C283C280209560C0027A32120038D0029B
:100D3200209554D293D281D282D283D280C293A2FE
:100D4200959208D293C281A2959209D281C282A2BF
:100D520095920AD282C283A295920BD283C280A2BA
:100D620095920CD280200A1FB4000FE54A2405F5A3
:100D72004AB4FF137450F54A800DE54C2405F54C36
:100D8200B4FF047450F54CD282E549B40069C0E066
:100D92007401141200C7D0E0C083C082C0E0900486
:100DA2002F1200BAD0E0D082D083E54A120523C0C8
:100DB20083C082C0E09004611200BAD0E0D082D039
:100DC20083C0E07401141200C5D0E0C083C082C0A9
:100DD200E09004231200BAD0E0D082D083E54B1217
:100DE2000523C083C082C0E09004611200BAD0E043
:100DF200D082D083020E6BB40169C0E07401141278
:100E020000C7D0E0C083C082C0E09004471200BA9D
:100E1200D0E0D082D083E54C120523C083C082C0CB
:100E2200E09004611200BAD0E0D082D083C0E074B6
:100E320001141200C5D0E0C083C082C0E090043B20
:100E42001200BAD0E0D082D083E54D120523C083D0
:100E5200C082C0E09004611200BAD0E0D082D08398
:100E6200020E6B754900020E6B2275817F12078B91
:100E7200120087C292C0E07401141200C7D0E0C011
:100E820083C082C0E09004011200BAD0E0D082D0C8
:100E920083C0E07401141200C5D0E0C083C082C0D8
:100EA200E09004121200BAD0E0D082D083755700CD
:100EB200C292D2CAD208D209D20AD20BD20CD2958D
:100EC200C293C281C282C283C280209566C0027A66
:100ED20032120038D00220955AD293D281D282D2D5
:100EE20083D280C293A2959208D293C281A2959294
:100EF20009D281C282A295920AD282C283A295921B
:100F02000BD283C280A295920CD280200825D204F3
:100F1200D205D28C753C00753D00753E00753F00D0
:100F2200754000120743740D120510740A12051061
:100F3200020FA2D293300106120C33020EB6D2086F
:100F4200D209D20AD20BD20CD295C293C281C282EA
:100F5200C283C280209544C0027A32120038D00285
:100F6200209538D293D281D282D283D280C293A2E8
:100F7200959208D293C281A2959209D281C282A28D
:100F820095920AD282C283A295920BD283C280A288
:100F920095920CD280200903020FE4D281020EB690
:100FA200C201D202C0E07401141200C7D0E0C083B3
:100FB200C082C0E09004611200BAD0E0D082D08337
:100FC200C0E07401141200C5D0E0C083C082C0E04A
:100FD2009004611200BAD0E0D082D0831208471286
:0A0FE2000819D201020EB6020E6CCF
:00000001FF
