:03000000020714E0
:0100030032CA
:03000B00020407E5
:0100130032BA
:01001B0032B2
:0100230032AA
:03002B00020408C4
:10002E00C000788500D8FDD00022C000C00179281C
:10003E007868D8FED9FADAF6D001D00022D294121E
:10004E00002EC29422A2E79283A2E69282A2E592A9
:10005E0081A2E4928012004B12002EA2E39283A2A0
:10006E00E29282A2E19281A2E0928012004B22D211
:10007E0093020053C293020053C294C0027A281214
:10008E000038D0027433120082743312008274323C
:10009E001200827428120082740C120082740112F3
:1000AE000082C0027A02120038D00222E493600667
:1000BE0012007DA380F62244404480020082C0E0FC
:1000CE00E8C4540F443012007DE8540F443012003F
:0400DE007DD0E022CF
:1000E200C0E0C0D0C000C001C002E4F538F539F567
:1000F2003AF53BF53C7A20E533A2E779047830E61D
:1001020033F608D9FA79057838E636D4F608D9F9FB
:10011200DAE5D002D001D000D0D0D0E022C0E0C0D9
:10012200D0C000C001C002E4F538F539F53AF53B1C
:10013200F53C7A20E533A2E779047830E633F60815
:10014200D9FA79057838C0D0E6243320E70224D0E2
:1001520020E30224FDD0D033F608D9EADAD6D00261
:10016200D001D000D0D0D0E022C0E0C0D0C000C0CA
:1001720001C0027A207905C3783CE613C0D030E78B
:100182000224D030E30224FDF618D0D0D9EC790451
:100192007833E613F618D9FADADBD002D001D000B0
:1001A200D0D0D0E022C0E0C0D0E5302534F530E533
:1001B200313535F531E5323536F532E5333537F55A
:1001C20033D0D0D0E022C0E0C0D0C3E5309534F5C2
:1001D20030E5319535F531E5329536F532E5339531
:1001E20037F533D0D0D0E022C0E0C0D0C3E530959F
:1001F20034E5319535E5329536E53395379200D0C1
:10020200D0D0E022C0E0C0D0C3E5349530E53595CA
:1002120031E5369532E53795339200D0D0D0E022E1
:10022200C0E0C0D0C200C3E53495307014E5359506
:1002320031700EE53695327008E53795337002D28B
:1002420000D0D0D0E02212022220000302020622B5
:100252001202222000030201EA22C0E0C0F0C0D054
:10026200C000C001C002C003E5308534F0A4F8A983
:10027200F0E5318534F0A429F9E435F0FAE530856A
:1002820035F0A429F9E5F03AFAE433FBE532853496
:10029200F0A42AFAE5F03BFBE5318535F0A42AFA11
:1002A200E5F03BFBE5308536F0A42AFAE5F03BFBAE
:1002B200E5338534F0A42BFBE5328535F0A42BFB26
:1002C200E5318536F0A42BFBE5308537F0A42BFB16
:1002D2008B338A3289318830D003D002D001D000EA
:1002E200D0D0D0F0D0E022C0E0C0D0C000C001C069
:1002F20002C003C0047C20E4F8F9FAFBC3E5303302
:10030200F530E53133F531E53233F532E53333F5A6
:1003120033E833F8E933F9EA33FAEB33FBC3E89510
:1003220034E99535EA9536EB95374013E89534F87C
:10033200E99535F9EA9536FAEB9537FB433001DC5E
:10034200BBD004D003D002D001D000D0D0D0E02264
:100352005265666C6F77204F76656E3A2000537453
:100362006172742F436F6E6669677572653F0053E1
:100372006F616B2054696D653A2000536F616B2089
:1003820054656D703A20005265666C2054696D6543
:100392003A20005265666C2054656D703A20005414
:1003A200455354204D4553534147452000202020BA
:1003B20020202020202020202020202020005072D9
:1003C200656865617400536F616B005265666C6F9E
:1003D2007700438E08E58954F04401F589758CF065
:1003E200758A2CD2A9D28C2275C80075CDBF75CC66
:1003F2002843C98075CBBF75CA28E4F530F531436F
:100402009B80D2CA2232C2CFB284C0E0C0D00530B3
:10041200E53070020531E530B4E810E531B4030B84
:10042200E5322401F532E4F530F531D0D0D0E032B6
:1004320075AC0075AD0075B30075B40075B100758B
:10044200B200D296D295D2AFC0027A32120038D020
:1004520002438E1043878075985253C4DF53890F2D
:10046200438920758DF7D28EC28C438E085389F052
:1004720043890143B38253B47D53E8F043E80775DF
:10048200F60043F68143E101C201C2027405F5455B
:10049200754650754702754805754990754B01754B
:1004A20044007532002202071DE544B40075C0E025
:1004B2007401141200C7D0E0C083C082C0E0900370
:1004C200C01200BAD0E0D082D083C083C082C0E024
:1004D2009003AF1200BAD0E0D082D083C0E07401A2
:1004E200141200C5D0E0C083C082C0E09003AF12F6
:1004F20000BAD0E0D082D083C0E07401141200C5EB
:10050200D0E0C000A8321200CCD000753446753558
:100512000075360075370012024830000375440139
:100522000205FFB4016BC0E07401141200C7D0E0F1
:10053200C083C082C0E09003C81200BAD0E0D0826B
:10054200D083C083C082C0E09003AF1200BAD0E073
:10055200D082D083C0E07401141200C5D0E0C08301
:10056200C082C0E09003AF1200BAD0E0D082D08344
:10057200C0E07401141200C5D0E0C000A83212001D
:10058200CCD000E532B5480675440275320002054A
:10059200FFB40260C0E07401141200C7D0E0C0834F
:1005A200C082C0E09003CD1200BAD0E0D082D083E6
:1005B200C083C082C0E09003AF1200BAD0E0D08204
:1005C200D083C0E07401141200C5D0E0C083C082A1
:1005D200C0E09003AF1200BAD0E0D082D083C0E076
:1005E2007401141200C5D0E0C000A8321200CCD0B1
:1005F200000205FF7544000205FF1204A80204ABC5
:1006020022209614C0027A32120038D002209608B4
:100612003096FDE54504F545E545B4007AC0E07441
:1006220001141200C7D0E0C083C082C0E090037DF5
:100632001200BAD0E0D082D083C000A8471200CC0A
:10064200D000C000A8461200CCD000C083C082C037
:10065200E09003AF1200BAD0E0D082D083C0E07441
:1006620001141200C5D0E0C083C082C0E0900371C3
:100672001200BAD0E0D082D083C000A8481200CCC9
:10068200D000C083C082C0E09003AF1200BAD0E0B5
:10069200D082D083020713B40171C0E07401141236
:1006A20000C7D0E0C083C082C0E09003951200BAB8
:1006B200D0E0D082D083C000A8491200CCD000C0C4
:1006C20083C082C0E09003AF1200BAD0E0D082D0E3
:1006D20083C0E07401141200C5D0E0C083C082C0A0
:1006E200E09003891200BAD0E0D082D083C000A883
:1006F2004B1200CCD000C083C082C0E09003AF1286
:1007020000BAD0E0D082D0830207137545000207F9
:10071200132275817F120432120087C0E074011423
:100722001200C7D0E0C083C082C0E0900352120022
:10073200BAD0E0D082D083C0E07401141200C5D0D8
:10074200E0C083C082C0E09003601200BAD0E0D063
:1007520082D083209512C0027A32120038D0022051
:1007620095063095FD02078B30010612060302073B
:1007720055209612C0027A32120038D00220960614
:100782003096FD020798020755C201D2021203EA0F
:0E0792001204AB1204A8D2010207550207148C
:00000001FF
