:030000000208F201
:0100030032CA
:03000B0002045E8E
:0100130032BA
:01001B0032B2
:0100230032AA
:03002B0002045F6D
:10002E00C000788500D8FDD00022C000C00179281C
:10003E007868D8FED9FADAF6D001D00022D294121E
:10004E00002EC29422A2E79283A2E69282A2E592A9
:10005E0081A2E4928012004B12002EA2E39283A2A0
:10006E00E29282A2E19281A2E0928012004B22D211
:10007E0093020053C293020053C294C0027A281214
:10008E000038D0027433120082743312008274323C
:10009E001200827428120082740C120082740112F3
:1000AE000082C0027A02120038D00222E493600667
:1000BE0012007DA380F62244404480020082C0E0FC
:1000CE00E8C4540F443012007DE8540F443012003F
:0400DE007DD0E022CF
:1000E200C0E0C0D0C000C001C002E4F538F539F567
:1000F2003AF53BF53C7A20E533A2E779047830E61D
:1001020033F608D9FA79057838E636D4F608D9F9FB
:10011200DAE5D002D001D000D0D0D0E022C0E0C0D9
:10012200D0C000C001C002E4F538F539F53AF53B1C
:10013200F53C7A20E533A2E779047830E633F60815
:10014200D9FA79057838C0D0E6243320E70224D0E2
:1001520020E30224FDD0D033F608D9EADAD6D00261
:10016200D001D000D0D0D0E022C0E0C0D0C000C0CA
:1001720001C0027A207905C3783CE613C0D030E78B
:100182000224D030E30224FDF618D0D0D9EC790451
:100192007833E613F618D9FADADBD002D001D000B0
:1001A200D0D0D0E022C0E0C0D0E5302534F530E533
:1001B200313535F531E5323536F532E5333537F55A
:1001C20033D0D0D0E022C0E0C0D0C3E5309534F5C2
:1001D20030E5319535F531E5329536F532E5339531
:1001E20037F533D0D0D0E022C0E0C0D0C3E530959F
:1001F20034E5319535E5329536E53395379200D0C1
:10020200D0D0E022C0E0C0D0C3E5349530E53595CA
:1002120031E5369532E53795339200D0D0D0E022E1
:10022200C0E0C0D0C200C3E53495307014E5359506
:1002320031700EE53695327008E53795337002D28B
:1002420000D0D0D0E02212022220000302020622B5
:100252001202222000030201EA22C0E0C0F0C0D054
:10026200C000C001C002C003E5308534F0A4F8A983
:10027200F0E5318534F0A429F9E435F0FAE530856A
:1002820035F0A429F9E5F03AFAE433FBE532853496
:10029200F0A42AFAE5F03BFBE5318535F0A42AFA11
:1002A200E5F03BFBE5308536F0A42AFAE5F03BFBAE
:1002B200E5338534F0A42BFBE5328535F0A42BFB26
:1002C200E5318536F0A42BFBE5308537F0A42BFB16
:1002D2008B338A3289318830D003D002D001D000EA
:1002E200D0D0D0F0D0E022C0E0C0D0C000C001C069
:1002F20002C003C0047C20E4F8F9FAFBC3E5303302
:10030200F530E53133F531E53233F532E53333F5A6
:1003120033E833F8E933F9EA33FAEB33FBC3E89510
:1003220034E99535EA9536EB95374013E89534F87C
:10033200E99535F9EA9536FAEB9537FB433001DC5E
:10034200BBD004D003D002D001D000D0D0D0E02264
:100352005265666C6F77204F76656E3A2000537453
:100362006172742F436F6E6669677572653F0053E1
:100372006F616B2054696D653A2000536F616B2089
:1003820054656D703A20005265666C2054696D6543
:100392003A20005265666C2054656D703A20005414
:1003A200455354204D4553534147452000202020BA
:1003B20020202020202020202020202020005072D9
:1003C200656865617400536F616B005065616B20F5
:1003D200746F20536F616B005265666C6F770043D8
:1003E2006F6F6C696E670046696E69736865642138
:1003F20000454D455247454E43592053544F5000F6
:100402003099FDC299F59922E4936006120402A381
:1004120080F622C0E0E8C4540F4430120402E854CB
:100422000F4430120402D0E022438E08E58954F0D2
:100432004401F589758CF0758A2CD2A9D28C22756B
:10044200C80075CDBF75CC2843C98075CBBF75CAAE
:1004520028E4F54DF54E439B80D2CA2232C2CFB278
:1004620084C0E0C0D0054DE54D7002054EE54DB4A7
:100472002C3AE54EB40135854F30753100753200A6
:10048200753300C000A84F120415D000740D120479
:1004920002740A120402300307E5502401D4F55015
:1004A200E54F2401D4F54FE4F54DF54ED0D0D0E020
:1004B2003275AC0075AD0075B30075B40075B1004E
:1004C20075B200D296D295D2AFC0027A32120038FB
:1004D200D002438E1043878075985253C4DF5389EC
:1004E2000F438920758DF7D28EC28C438E085389B3
:1004F200F043890143B38253B47D53E8F043E807E4
:1005020075F60043F68143E101C201C2027405F5AA
:1005120045754650754702754805754990754A00FC
:10052200754B01754400754F00755000C20322C21D
:1005320003C202754400754F000208FB209012C0EE
:10054200027A32120038D0022090063090FD120555
:1005520031E544753058753102B40063C0E074016E
:10056200141200C7D0E0C083C082C0E09003C01262
:1005720000BAD0E0D082D083C083C082C0E09003B2
:10058200AF1200BAD0E0D082D083C0E0740114125E
:1005920000C5D0E0C000A84F1200CCD000D203E5C5
:1005A20050B43C030205317534467535007536008A
:1005B200753700120252300003754401020778B405
:1005C200014FC0E07401141200C7D0E0C083C082A2
:1005D200C0E09003C81200BAD0E0D082D083C083BA
:1005E200C082C0E09003AF1200BAD0E0D082D083C4
:1005F200C0E07401141200C5D0E0C000A84F120080
:10060200CCD000E54FB54806754402754F0002078D
:1006120078B4025CC0E07401141200C7D0E0C08359
:10062200C082C0E09003CD1200BAD0E0D082D08365
:10063200C083C082C0E09003AF1200BAD0E0D08283
:10064200D083C0E07401141200C5D0E0C000A84FEE
:100652001200CCD000754F007534497535007536DF
:100662000075370012025230000375440302077806
:10067200B4034FC0E07401141200C7D0E0C083C0BD
:1006820082C0E09003DA1200BAD0E0D082D083C0F8
:1006920083C082C0E09003AF1200BAD0E0D082D013
:1006A20083C0E07401141200C5D0E0C000A84F124C
:1006B20000CCD000E54FB54B06754404754F0002DF
:1006C2000778B4045CC0E07401141200C7D0E0C023
:1006D20083C082C0E09003E11200BAD0E0D082D0A1
:1006E20083C083C082C0E09003AF1200BAD0E0D0D2
:1006F20082D083C0E07401141200C5D0E0C000A80B
:100702004F1200CCD000754F007534207535A1759D
:10071200360775370012025230000375440502078E
:1007220078B4054CC0E07401141200C7D0E0C08355
:10073200C082C0E09003E91200BAD0E0D082D08338
:10074200C083C082C0E09003AF1200BAD0E0D08272
:10075200D083C0E07401141200C5D0E0C000A84FDD
:100762001200CCD000E54FB40A030208FB0207785E
:1007720075440012053102053E22209614C0027A09
:1007820032120038D0022096083096FDE54504F575
:100792004520B022C0027A32120038D00220B016B0
:1007A20030B0FDB40009E5482405D4F5488007E5DA
:1007B2004B2405D4F54B208434C0027A321200381F
:1007C200D0022084283084FDB40012E5462405D4EA
:1007D200F5467007E5472401D4F5478010E5492422
:1007E20005D4F5497007E54A2401D4F54AE545B434
:1007F200007AC0E07401141200C7D0E0C083C08246
:10080200C0E090037D1200BAD0E0D082D083C00055
:10081200A8471200CCD000C000A8461200CCD000DD
:10082200C083C082C0E09003AF1200BAD0E0D08291
:10083200D083C0E07401141200C5D0E0C083C0822E
:10084200C0E09003711200BAD0E0D082D083C00021
:10085200A8481200CCD000C083C082C0E09003AF91
:100862001200BAD0E0D082D0830208F1B4017AC07B
:10087200E07401141200C7D0E0C083C082C0E090CF
:1008820003951200BAD0E0D082D083C000A84A12E9
:1008920000CCD000C000A8491200CCD000C083C058
:1008A20082C0E09003AF1200BAD0E0D082D083C001
:1008B200E07401141200C5D0E0C083C082C0E09091
:1008C20003891200BAD0E0D082D083C000A84B12B4
:1008D20000CCD000C083C082C0E09003AF1200BA47
:1008E200D0E0D082D0830208F17545000208F122DF
:1008F20075817F1204B3120087C0E07401141200E4
:10090200C7D0E0C083C082C0E09003521200BAD0C8
:10091200E0D082D083C0E07401141200C5D0E0C0E0
:1009220083C082C0E09003601200BAD0E0D082D0CF
:1009320083209512C0027A32120038D00220950626
:100942003095FD02096930010612077C0209332045
:100952009612C0027A32120038D0022096063096E1
:10096200FD0209AE020933C201D202C0E0740114D1
:100972001200C7D0E0C083C082C0E09003AF120073
:10098200BAD0E0D082D083C0E07401141200C5D086
:10099200E0C083C082C0E09003AF1200BAD0E0D0C2
:1009A20082D08312044112053E120531D20102099E
:0409B200330208F212
:00000001FF
