:030000000208F9FA
:0100030032CA
:03000B0002049656
:0100130032BA
:01001B0032B2
:0100230032AA
:03002B0002049735
:10002E00C000788500D8FDD00022C000C00179281C
:10003E007868D8FED9FADAF6D001D00022D294121E
:10004E00002EC29422A2E79283A2E69282A2E592A9
:10005E0081A2E4928012004B12002EA2E39283A2A0
:10006E00E29282A2E19281A2E0928012004B22D211
:10007E0093020053C293020053C294C0027A281214
:10008E000038D0027433120082743312008274323C
:10009E001200827428120082740C120082740112F3
:1000AE000082C0027A02120038D00222E493600667
:1000BE0012007DA380F62244404480020082C0E0FC
:1000CE00E8C4540F443012007DE8540F443012003F
:0400DE007DD0E022CF
:1000E200C0E0C0D0C000C001C002E4F538F539F567
:1000F2003AF53BF53C7A20E533A2E779047830E61D
:1001020033F608D9FA79057838E636D4F608D9F9FB
:10011200DAE5D002D001D000D0D0D0E022C0E0C0D9
:10012200D0C000C001C002E4F538F539F53AF53B1C
:10013200F53C7A20E533A2E779047830E633F60815
:10014200D9FA79057838C0D0E6243320E70224D0E2
:1001520020E30224FDD0D033F608D9EADAD6D00261
:10016200D001D000D0D0D0E022C0E0C0D0C000C0CA
:1001720001C0027A207905C3783CE613C0D030E78B
:100182000224D030E30224FDF618D0D0D9EC790451
:100192007833E613F618D9FADADBD002D001D000B0
:1001A200D0D0D0E022C0E0C0D0E5302534F530E533
:1001B200313535F531E5323536F532E5333537F55A
:1001C20033D0D0D0E022C0E0C0D0C3E5309534F5C2
:1001D20030E5319535F531E5329536F532E5339531
:1001E20037F533D0D0D0E022C0E0C0D0C3E530959F
:1001F20034E5319535E5329536E53395379200D0C1
:10020200D0D0E022C0E0C0D0C3E5349530E53595CA
:1002120031E5369532E53795339200D0D0D0E022E1
:10022200C0E0C0D0C200C3E53495307014E5359506
:1002320031700EE53695327008E53795337002D28B
:1002420000D0D0D0E02212022220000302020622B5
:100252001202222000030201EA22C0E0C0F0C0D054
:10026200C000C001C002C003E5308534F0A4F8A983
:10027200F0E5318534F0A429F9E435F0FAE530856A
:1002820035F0A429F9E5F03AFAE433FBE532853496
:10029200F0A42AFAE5F03BFBE5318535F0A42AFA11
:1002A200E5F03BFBE5308536F0A42AFAE5F03BFBAE
:1002B200E5338534F0A42BFBE5328535F0A42BFB26
:1002C200E5318536F0A42BFBE5308537F0A42BFB16
:1002D2008B338A3289318830D003D002D001D000EA
:1002E200D0D0D0F0D0E022C0E0C0D0C000C001C069
:1002F20002C003C0047C20E4F8F9FAFBC3E5303302
:10030200F530E53133F531E53233F532E53333F5A6
:1003120033E833F8E933F9EA33FAEB33FBC3E89510
:1003220034E99535EA9536EB95374013E89534F87C
:10033200E99535F9EA9536FAEB9537FB433001DC5E
:10034200BBD004D003D002D001D000D0D0D0E02264
:100352005265666C6F77204F76656E3A2000537453
:100362006172742F436F6E6669677572653F0053E1
:100372006F616B2054696D653A2000536F616B2089
:1003820054656D703A20005265666C2054696D6543
:100392003A20005265666C2054656D703A20005414
:1003A200455354204D4553534147452000202020BA
:1003B20020202020202020202020202020005072D9
:1003C200656865617400536F616B005065616B20F5
:1003D200746F20536F616B005265666C6F770043D8
:1003E2006F6F6C696E670046696E69736865642138
:1003F20000454D455247454E43592053544F5000F6
:100402003099FDC299F59922E4936006120402A381
:1004120080F62275F06484443012007DE5F075F0B8
:100422000A84443012007DE5F0443012007D2275CA
:10043200F064844430120402E5F075F00A8444301A
:10044200120402E5F0443012040222C0E0E8C4546F
:100452000F4430120402E8540F4430120402D0E078
:1004620022438E08E58954F04401F589758CF075B4
:100472008A2CD2A9D28C2275C80075CDBF75CC2822
:1004820043C98075CBBF75CA28E4F54AF54B439B37
:1004920080D2CA2232C2CFB284C0E0C0D0054C059D
:1004A2004AE54A7002054BE54CB40A15054FC3E50F
:1004B20050954FB39296E54FB46433754F00E4F50F
:1004C2004CE54AB4E828E54BB40323E54F12043166
:1004D200740D120402740A120402300306E54E245B
:1004E20001F54EE54D2401F54DE4F54AF54BD0D02A
:1004F200D0E03275AC0075AD0075B30075B400750F
:10050200B10075B200D2B0D295D2AFC0027A321227
:100512000038D002438E1043878075985253C4DF4F
:1005220053890F438920758DF7D28EC28C438E0872
:100532005389F043890143B38253B47D53E8F043B6
:10054200E80775F60043F68143E101C201C2027475
:1005520000F5457546967547057548DC754905757C
:100562004400754D00754C00754E00C20322C20353
:10057200C202754400754D007550000209022090B8
:1005820012C0027A32120038D0022090063090FD5A
:10059200120570E544B40002800302061F75501E66
:1005A200C0E07401141200C7D0E0C083C082C0E072
:1005B2009003C01200BAD0E0D082D083C083C08240
:1005C200C0E09003AF1200BAD0E0D082D083C0E086
:1005D2007401141200C5D0E0E54D12041575303CCB
:1005E200753100753200753300D203E54EB40A1539
:1005F20075343275350075360075370012024820A1
:10060200000302057075344675350075360075377E
:10061200001202483000037544010207B7B4014BCF
:10062200755014C0E07401141200C7D0E0C083C03A
:1006320082C0E09003C81200BAD0E0D082D083C05A
:1006420083C082C0E09003AF1200BAD0E0D082D063
:1006520083C0E07401141200C5D0E0E54D12041508
:10066200E54DB547037544020207B7B4025B755006
:1006720064C0E07401141200C7D0E0C083C082C01D
:10068200E09003CD1200BAD0E0D082D083C083C004
:1006920082C0E09003AF1200BAD0E0D082D083C013
:1006A200E07401141200C5D0E0E54D120415754D39
:1006B20000753448753500753600753700120252E0
:1006C2003000037544030207B7B40344755064C095
:1006D200E07401141200C7D0E0C083C082C0E09071
:1006E20003DA1200BAD0E0D082D083C083C082C0C5
:1006F200E09003AF1200BAD0E0D082D083E54D1271
:100702000415E54DB54906754404754D000207B759
:10071200B4045B755000C0E07401141200C7D0E04D
:10072200C083C082C0E09003E11200BAD0E0D08260
:10073200D083C083C082C0E09003AF1200BAD0E081
:10074200D082D083C0E07401141200C5D0E0E54D20
:10075200120415754D007534207535A1753607756F
:1007620037001202523000037544050207B7B40580
:100772003EC0E07401141200C7D0E0C083C082C042
:10078200E09003E91200BAD0E0D082D083C083C0E7
:1007920082C0E09003AF1200BAD0E0D082D083E5ED
:1007A2004D120415E54DB40A030209020207B7759A
:1007B200440012057002058022E54520B012C002F5
:1007C2007A32120038D00220B00630B0FD04F5456E
:1007D200208420C0027A32120038D00220841430E1
:1007E20084FDB40008E5472405F5478006E5492461
:1007F20005F54920B020C0027A32120038D002201A
:10080200B01430B0FDB40008E5462405F546800674
:10081200E5482405F548E545B40069C0E0740114D3
:100822001200C7D0E0C083C082C0E090037D1200F6
:10083200BAD0E0D082D083E546120415C083C082CC
:10084200C0E09003AF1200BAD0E0D082D083C0E003
:100852007401141200C5D0E0C083C082C0E09003CE
:10086200711200BAD0E0D082D083E547120415C0DD
:1008720083C082C0E09003AF1200BAD0E0D082D031
:10088200830208F8B40169C0E07401141200C7D0F1
:10089200E0C083C082C0E09003951200BAD0E0D0DD
:1008A20082D083E548120415C083C082C0E0900361
:1008B200AF1200BAD0E0D082D083C0E0740114122B
:1008C20000C5D0E0C083C082C0E09003891200BAA4
:1008D200D0E0D082D083E549120415C083C082C023
:1008E200E09003AF1200BAD0E0D082D0830208F8C1
:1008F2007545000208F82275817F1204F5120087FF
:10090200C0E07401141200C7D0E0C083C082C0E00E
:100912009003521200BAD0E0D082D083C0E07401BA
:10092200141200C5D0E0C083C082C0E09003601200
:1009320000BAD0E0D082D083209512C0027A32125F
:100942000038D0022095063095FD0209703001066C
:100952001207BB02093A20B012C0027A32120038E2
:10096200D00220B00630B0FD0209B502093AC20138
:10097200D202C0E07401141200C7D0E0C083C0826A
:10098200C0E09003AF1200BAD0E0D082D083C0E0C2
:100992007401141200C5D0E0C083C082C0E090038D
:1009A200AF1200BAD0E0D082D0831204791205804F
:0B09B200120570D20102093A0208F998
:00000001FF
