:03000000020C03EC
:0100030032CA
:03000B000204925A
:0100130032BA
:01001B0032B2
:0100230032AA
:03002B0002049339
:10002E00C000788500D8FDD00022C000C00179281C
:10003E007868D8FED9FADAF6D001D00022D294121E
:10004E00002EC29422A2E79283A2E69282A2E592A9
:10005E0081A2E4928012004B12002EA2E39283A2A0
:10006E00E29282A2E19281A2E0928012004B22D211
:10007E0093020053C293020053C294C0027A281214
:10008E000038D0027433120082743312008274323C
:10009E001200827428120082740C120082740112F3
:1000AE000082C0027A02120038D00222E493600667
:1000BE0012007DA380F62244404480020082C0E0FC
:1000CE00E8C4540F443012007DE8540F443012003F
:0400DE007DD0E022CF
:1000E200C0E0C0D0C000C001C002E4F538F539F567
:1000F2003AF53BF53C7A20E533A2E779047830E61D
:1001020033F608D9FA79057838E636D4F608D9F9FB
:10011200DAE5D002D001D000D0D0D0E022C0E0C0D9
:10012200D0C000C001C002E4F538F539F53AF53B1C
:10013200F53C7A20E533A2E779047830E633F60815
:10014200D9FA79057838C0D0E6243320E70224D0E2
:1001520020E30224FDD0D033F608D9EADAD6D00261
:10016200D001D000D0D0D0E022C0E0C0D0C000C0CA
:1001720001C0027A207905C3783CE613C0D030E78B
:100182000224D030E30224FDF618D0D0D9EC790451
:100192007833E613F618D9FADADBD002D001D000B0
:1001A200D0D0D0E022C0E0C0D0E5302534F530E533
:1001B200313535F531E5323536F532E5333537F55A
:1001C20033D0D0D0E022C0E0C0D0C3E5309534F5C2
:1001D20030E5319535F531E5329536F532E5339531
:1001E20037F533D0D0D0E022C0E0C0D0C3E530959F
:1001F20034E5319535E5329536E53395379200D0C1
:10020200D0D0E022C0E0C0D0C3E5349530E53595CA
:1002120031E5369532E53795339200D0D0D0E022E1
:10022200C0E0C0D0C200C3E53495307014E5359506
:1002320031700EE53695327008E53795337002D28B
:1002420000D0D0D0E02212022220000302020622B5
:100252001202222000030201EA22C0E0C0F0C0D054
:10026200C000C001C002C003E5308534F0A4F8A983
:10027200F0E5318534F0A429F9E435F0FAE530856A
:1002820035F0A429F9E5F03AFAE433FBE532853496
:10029200F0A42AFAE5F03BFBE5318535F0A42AFA11
:1002A200E5F03BFBE5308536F0A42AFAE5F03BFBAE
:1002B200E5338534F0A42BFBE5328535F0A42BFB26
:1002C200E5318536F0A42BFBE5308537F0A42BFB16
:1002D2008B338A3289318830D003D002D001D000EA
:1002E200D0D0D0F0D0E022C0E0C0D0C000C001C069
:1002F20002C003C0047C20E4F8F9FAFBC3E5303302
:10030200F530E53133F531E53233F532E53333F5A6
:1003120033E833F8E933F9EA33FAEB33FBC3E89510
:1003220034E99535EA9536EB95374013E89534F87C
:10033200E99535F9EA9536FAEB9537FB433001DC5E
:10034200BBD004D003D002D001D000D0D0D0E02264
:100352005265666C6F77204F76656E3A2000537453
:100362006172742F436F6E6669677572653F0053E1
:100372006F616B2054696D653A2000536F616B2089
:1003820054656D703A20005265666C2054696D6543
:100392003A20005265666C2054656D703A20005414
:1003A200455354204D4553534147452000202020BA
:1003B20020202020202020202020202020005072D9
:1003C200656865617400536F616B005065616B20F5
:1003D200746F20536F616B005265666C6F770043D8
:1003E2006F6F6C696E670046696E69736865642138
:1003F20000454D455247454E43592053544F5000F6
:10040200456D657267656E63792053746F70210D57
:100412000A003099FDC299F59922E493600612040C
:1004220014A380F62275F06484443012007DE5F056
:1004320075F00A84443012007DE5F0443012007DEC
:100442002275F064844430120414E5F075F00A84D5
:100452004430120414E5F0443012041422438E088E
:10046200E58954F04401F589758CF0758A2CD2A97E
:10047200D28C2275C80075CDBF75CC2843C9807552
:10048200CBBF75CA28E4F54AF54B439B80D2CA22FA
:1004920032C2CFB284C0E0C0D0054C054AE54A70F2
:1004A20002054BE54CB40A15054FC3E550954FB311
:1004B2009292E54FB46436754F00E4F54CE54AB4C8
:1004C200E82BE54BB403261205B0E54D1204437444
:1004D2000D120414740A120414300306E54E2401AA
:1004E200F54EE54D2401F54DE4F54AF54BD0D0D05B
:1004F200E032C0E07406141200C5D0E0C000A83B90
:100502001200CCD000C000A83A1200CCD000C0E04B
:10051200742E12007DD0E0C000A8391200CCD000A9
:10052200C000A8381200CCD0002279C87868D8FE62
:10053200D9FA438E1043878075985253C4DF53898A
:100542000F438920758DF7D28E22753000753100E8
:100552007532007533007D647E641205957537002F
:1005620075360089358834C0307530FC7531857533
:100572003200753300120252200007D0301201A758
:10058200DDD8DED67537007536007535008E34122B
:1005920002E922C2EFD2EE30EFFDE5C2540FF8E5D8
:1005A200C3C4C0E0540FF9D0E054F048F82253E835
:1005B200F043E8001205958842894353E8F043E886
:1005C2000712054C88308931753200753300753455
:1005D2001475355075360075370012025C85423449
:1005E2008543357536007537001202E97534517549
:1005F200350075360075370012025C75346075354A
:100602005B7536037537001201A722C0E0E8C454B7
:100612000F4430120414E8540F4430120414D0E092
:1006220022C000A83B12060DD000C000A83A120654
:100632000DD000C000A83912060DD000C000A838A5
:1006420012060DD000740D120414740A120414223E
:1006520075AC0075AD0075B30075B40075B1007569
:10066200B200D281D293D2AFC0027A32120038D015
:1006720002438E1043878075985253C4DF53890F0B
:10068200438920758DF7D28EC28C438E085389F030
:1006920043890143B38253B47D53E8F043E80775BD
:1006A200F60043F68143E101C201C2027400F5453E
:1006B2007546967547057548DC754905754400759C
:1006C2004D00754C00754E00C20375300075310047
:1006D20075320075330022C203C202C201754400A2
:1006E200754D00754C00754E007550009004021255
:1006F200041CC2CA020C0CC0027A32120038D002A8
:10070200D204D205D206D207D208D295C293C281B0
:10071200C282C283C280209544C0027A321200385B
:10072200D002209538D293D281D282D283D280C293
:1007320093A2959204D293C281A2959205D281C2CC
:1007420082A2959206D282C283A2959207D283C2D6
:1007520080A2959208D2802008031206D9E544B4FB
:10076200000280030207E675501EC0E074011412F5
:1007720000C7D0E0C083C082C0E09003C01200BABC
:10078200D0E0D082D083C083C082C0E09003AF1299
:1007920000BAD0E0D082D083C0E07401141200C548
:1007A200D0E0E54D1204271200E21204F4D203E570
:1007B2004EB43C157534207535A175360775370072
:1007C2001202482000030206D975340075353575CA
:1007D200360C753700120206300006754401754D5D
:1007E200000209C9B40154755014C0E07401141216
:1007F20000C7D0E0C083C082C0E09003C81200BA34
:10080200D0E0D082D083C083C082C0E09003AF1218
:1008120000BAD0E0D082D083C0E07401141200C5C7
:10082200D0E0E54D1204271200E21204F4E54DB5C2
:100832004706754402754D000209C9B402028003DD
:100842000208A6755064C0E07401141200C7D0E01B
:10085200C083C082C0E09003CD1200BAD0E0D08243
:10086200D083C083C082C0E09003AF1200BAD0E050
:10087200D082D083C0E07401141200C5D0E0E54DEF
:100882001204271200E21204F475348075354F7594
:100892003612753700120206300003754403754D97
:1008A200000209C9B40354755064C0E07401141203
:1008B20000C7D0E0C083C082C0E09003DA1200BA61
:1008C200D0E0D082D083C083C082C0E09003AF1258
:1008D20000BAD0E0D082D083C0E07401141200C507
:1008E200D0E0E54D1204271200E21204F4E54DB502
:1008F2004906754404754D000209C9B40461755076
:1009020000C0E07401141200C7D0E0C083C082C0EE
:10091200E09003E11200BAD0E0D082D083C083C05D
:1009220082C0E09003AF1200BAD0E0D082D083C080
:10093200E07401141200C5D0E0E54D120427120044
:10094200E21204F47534207535A175360775370047
:100952001201EA300003754405754D000209C9B45D
:10096200055FC0E07401141200C7D0E0C083C082EA
:10097200C0E09003E91200BAD0E0D082D083C083F5
:10098200C082C0E09003AF1200BAD0E0D082D08320
:10099200C0E07401141200C5D0E0E54D120427C076
:1009A20083C082C0E09003AF1200BAD0E0D082D000
:1009B20083E54DB40508754400C28C020C0C020993
:1009C200C97544001206D90206F922E545D204D2BD
:1009D20005D206D207D208D295C293C281C282C280
:1009E20083C280209546C0027A32120038D002209B
:1009F200953AD293D281D282D283D280C293A295E7
:100A02009204D293C281A2959205D281C282A2950A
:100A12009206D282C283A2959207D283C280A29505
:100A22009208D28020050504F545D281D204D20570
:100A3200D206D207D208D295C293C281C282C283A1
:100A4200C280209560C0027A32120038D00220950E
:100A520054D293D281D282D283D280C293A295926F
:100A620004D293C281A2959205D281C282A29592AA
:100A720006D282C283A2959207D283C280A29592A5
:100A820008D28020071FB4000FE5472405F547B4BC
:100A92005F137405F547800DE5492405F549B45FF8
:100AA200047405F549D204D205D206D207D208D27F
:100AB20095C293C281C282C283C280209560C00265
:100AC2007A32120038D002209554D293D281D28247
:100AD200D283D280C293A2959204D293C281A2956C
:100AE2009205D281C282A2959206D282C283A29537
:100AF2009207D283C280A2959208D28020061FB4A8
:100B0200000FE5462405F546B4FF137464F54680EC
:100B12000DE5482405F548B4FF047464F548D28213
:100B2200E545B40069C0E07401141200C7D0E0C00A
:100B320083C082C0E090037D1200BAD0E0D082D0A0
:100B420083E546120427C083C082C0E09003AF123F
:100B520000BAD0E0D082D083C0E07401141200C584
:100B6200D0E0C083C082C0E09003711200BAD0E02E
:100B7200D082D083E547120427C083C082C0E090B0
:100B820003AF1200BAD0E0D082D083020C02B401CB
:100B920069C0E07401141200C7D0E0C083C082C0F3
:100BA200E09003951200BAD0E0D082D083E54812DB
:100BB2000427C083C082C0E09003AF1200BAD0E025
:100BC200D082D083C0E07401141200C5D0E0C0838B
:100BD200C082C0E09003891200BAD0E0D082D083F4
:100BE200E549120427C083C082C0E09003AF12001F
:100BF200BAD0E0D082D083020C02754500020C020A
:100C02002275817F120652120087C0E0740114120D
:100C120000C7D0E0C083C082C0E09003521200BA85
:100C2200D0E0D082D083C0E07401141200C5D0E0BD
:100C3200C083C082C0E09003601200BAD0E0D082CC
:100C4200D083D204D205D206D207D208D295C2935B
:100C5200C281C282C283C280209544C0027A32120B
:100C62000038D002209538D293D281D282D283D258
:100C720080C293A2959204D293C281A2959205D288
:100C820081C282A2959206D282C283A2959207D293
:100C920083C280A2959208D280200403020D0ED254
:100CA200933001061209CD020C44D204D205D206B9
:100CB200D207D208D295C293C281C282C283C280B5
:100CC200209544C0027A32120038D002209538D2E0
:100CD20093D281D282D283D280C293A2959204D23D
:100CE20093C281A2959205D281C282A2959206D226
:100CF20082C283A2959207D283C280A2959208D221
:100D020080200503020D53D281020C44C201D2029B
:100D1200C0E07401141200C7D0E0C083C082C0E0FA
:100D22009003AF1200BAD0E0D082D083C0E0740149
:100D3200141200C5D0E0C083C082C0E09003AF129D
:100D420000BAD0E0D082D0831204751206F91206DE
:090D5200D9D201020C44020C0389
:00000001FF
