:03000000020DDA14
:0100030032CA
:03000B0002056C7F
:0100130032BA
:01001B0032B2
:0100230032AA
:03002B0002056D5E
:10002E00C000788500D8FDD00022C000C00179281C
:10003E007868D8FED9FADAF6D001D00022D294121E
:10004E00002EC29422A2E79283A2E69282A2E592A9
:10005E0081A2E4928012004B12002EA2E39283A2A0
:10006E00E29282A2E19281A2E0928012004B22D211
:10007E0093020053C293020053C294C0027A281214
:10008E000038D0027433120082743312008274323C
:10009E001200827428120082740C120082740112F3
:1000AE000082C0027A02120038D00222E493600667
:1000BE0012007DA380F62244404480020082C0E0FC
:1000CE00E8C4540F443012007DE8540F443012003F
:0400DE007DD0E022CF
:1000E200C0E0C0D0C000C001C002E4F53CF53DF55F
:1000F2003EF53FF5407A20E533A2E779047830E611
:1001020033F608D9FA7905783CE636D4F608D9F9F7
:10011200DAE5D002D001D000D0D0D0E022C0E0C0D9
:10012200D0C000C001C002E4F53CF53DF53EF53F0C
:10013200F5407A20E533A2E779047830E633F60811
:10014200D9FA7905783CC0D0E6243320E70224D0DE
:1001520020E30224FDD0D033F608D9EADAD6D00261
:10016200D001D000D0D0D0E022C0E0C0D0C000C0CA
:1001720001C0027A207905C37840E613C0D030E787
:100182000224D030E30224FDF618D0D0D9EC790451
:100192007833E613F618D9FADADBD002D001D000B0
:1001A200D0D0D0E022C0E0C0D0E5302534F530E533
:1001B200313535F531E5323536F532E5333537F55A
:1001C20033D0D0D0E022C0E0C0D0C3E5309534F5C2
:1001D20030E5319535F531E5329536F532E5339531
:1001E20037F533D0D0D0E022C0E0C0D0C3E530959F
:1001F20034E5319535E5329536E53395379200D0C1
:10020200D0D0E022C0E0C0D0C3E5349530E53595CA
:1002120031E5369532E53795339200D0D0D0E022E1
:10022200C0E0C0D0C200C3E53495307014E5359506
:1002320031700EE53695327008E53795337002D28B
:1002420000D0D0D0E02212022220000302020622B5
:100252001202222000030201EA22C0E0C0F0C0D054
:10026200C000C001C002C003E5308534F0A4F8A983
:10027200F0E5318534F0A429F9E435F0FAE530856A
:1002820035F0A429F9E5F03AFAE433FBE532853496
:10029200F0A42AFAE5F03BFBE5318535F0A42AFA11
:1002A200E5F03BFBE5308536F0A42AFAE5F03BFBAE
:1002B200E5338534F0A42BFBE5328535F0A42BFB26
:1002C200E5318536F0A42BFBE5308537F0A42BFB16
:1002D2008B338A3289318830D003D002D001D000EA
:1002E200D0D0D0F0D0E022C0E0C0F0C0D0C000C07A
:1002F20001C002C003E5388534F0A4F8A9F0E5395D
:100302008534F0A429F9E435F0FAE5388535F0A40E
:1003120029F9E5F03AFAE433FBE53A8534F0A42A08
:10032200FAE5F03BFBE5398535F0A42AFAE5F03B26
:10033200FBE5388536F0A42AFAE5F03BFBE53B8580
:1003420034F0A42BFBE53A8535F0A42BFBE5398587
:1003520036F0A42BFBE5388537F0A42BFB8B3B8AC8
:100362003A89398838D003D002D001D000D0D0D019
:10037200F0D0E022C0E0C0D0C000C001C002C00383
:10038200C0047C20E4F8F9FAFBC3E53033F530E52C
:100392003133F531E53233F532E53333F533E833D2
:1003A200F8E933F9EA33FAEB33FBC3E89534E9951C
:1003B20035EA9536EB95374013E89534F8E99535EB
:1003C200F9EA9536FAEB9537FB433001DCBBD004F2
:1003D200D003D002D001D000D0D0D0E02252656646
:1003E2006C6F77204F76656E3A2020202000537480
:1003F2006172742F436F6E6669677572653F005351
:100402006F616B2054696D653A2000536F616B20F8
:1004120054656D703A20005265666C2054696D65B2
:100422003A20005265666C2054656D703A20005483
:10043200455354204D455353414745200020202029
:100442002020202020202020202020202000507248
:10045200656865617400536F616B0052616D702055
:10046200746F205065616B005265666C6F77004354
:100472006F6F6C696E670046696E697368656421A7
:1004820000454D455247454E43592053544F500065
:10049200456D657267656E63792053746F70210DC7
:1004A2000A00792076616C2066726F6D20736F612D
:1004B2006B2074656D703A2000792076616C20663D
:1004C200726F6D207265666C6F772074656D703A1D
:1004D2002000536F616B2054656D703A20005265A5
:1004E200666C6F772054656D703A20003099FDC2BA
:1004F20099F59922E49360061204EEA380F6227520
:10050200F06484443012007DE5F075F00A844430D2
:1005120012007DE5F0443012007D2275F0648444BF
:10052200301204EEE5F075F00A8444301204EEE570
:10053200F044301204EE22438E08E58954F044015F
:10054200F589758CF0758A2CD2A9D28C2275C800D7
:1005520075CDBF75CC2843C98075CBBF75CA28E459
:10056200F54EF54F439B80D2CA2232C2CFC0E0C0C3
:10057200D00550054EE54E7002054F30021DE55084
:10058200B40A187550000554C3E5559554B39292B8
:10059200E554B46406755400E4F550E54EB4E82B16
:1005A200E54FB4032612068E1200E2120701300351
:1005B20006E5522401F552300411E5512401F551AA
:1005C200E5532401F553E4F54EF54FD0D0D0E03297
:1005D200C0E07401141200C5D0E0C000A83F1200B0
:1005E200CCD000C000A83E1200CCD000C0E0742ED7
:1005F20012007DD0E0C000A83D1200CCD000C000A7
:10060200A83C1200CCD0002279C87868D8FED9FA6A
:10061200438E1043878075985253C4DF53890F432A
:100622008920758DF7D28E227530007531007532B2
:10063200007533007D647E6412067375370075366B
:100642000089358834C0307530FC753185753200CB
:10065200753300120252200007D0301201A7DDD8F4
:10066200DED67537007536007535008E3412037686
:1006720022C2EFD2EE30EFFDE5C2540FF8E5C3C45B
:10068200C0E0540FF9D0E054F048F82253E8F043A8
:10069200E8001206738846894753E8F043E80712D8
:1006A200062A883089317532007533007534147525
:1006B200355075360075370012025C854634854721
:1006C200357536007537001203767534517535006D
:1006D20075360075370012025C75346075355B75CE
:1006E20036037537001201A722C0E0E8C4540F4454
:1006F200301204EEE8540F44301204EED0E022C06F
:1007020000A83F1206EBD000C000A83E1206EBD0B4
:1007120000742E1204EEC000A83D1206EBD000C0F9
:1007220000A83C1206EBD000E54B12051DE54A126B
:10073200051DE54D12051DE54C12051D740D120433
:10074200EE740A1204EE2275AC0075AD0075B300AA
:1007520075B40075B10075B200D281D293D2AFC028
:10076200027A32120038D002438E10438780759885
:100772005253C4DF53890F438920758DF7D28EC23D
:100782008C438E085389F043890143B38253B47D6D
:1007920053E8F043E80775F60043F68143E101C2EE
:1007A20001C2027400F549754A50754B2D754C789B
:1007B200754D2D75480075510075550075500075C1
:1007C2005200755300C203C204C205753000753170
:1007D2000075320075330022D205C292C203C202F2
:1007E200C20175480075510075500075520075536D
:1007F2000075550075540075300075310075320072
:10080200753300C204020DE5C205C0027A3212003D
:1008120038D002D206D207D208D209D20AD295C261
:1008220093C281C282C283C280209544C0027A32BE
:10083200120038D002209538D293D281D282D2834C
:10084200D280C293A2959206D293C281A2959207B8
:10085200D281C282A2959208D282C283A2959209C3
:10086200D283C280A295920AD280200A031207DAAA
:10087200E548B400028003020937755564C0E0748C
:1008820001141200C7D0E0C083C082C0E0900450BF
:100892001200BAD0E0D082D083C083C082C0E09080
:1008A200043F1200BAD0E0D082D083C0E0740E14AC
:1008B2001200C5D0E0E551120501E553C0E0740E07
:1008C200141200C7D0E01205011200E21205D2D2C2
:1008D20003E552B43C157534207535A1753607759C
:1008E20037001202482000030207DA7534C075355A
:1008F200C675362D753700120206200035854A343A
:1009020075350075360075370075381075392775DD
:100912003A00753B001202E9853834853935853A4B
:1009220036853B37120206300008754801755100C2
:10093200D205020B9BB40165755501C0E074011428
:100942001200C7D0E0C083C082C0E09004581200F9
:10095200BAD0E0D082D083C083C082C0E090043F8E
:100962001200BAD0E0D082D083C0E0740E1412001C
:10097200C5D0E0E551120501E553C0E0740E141232
:1009820000C7D0E01205011200E21205D2E551B50E
:100992004B08754802755100D205020B9BB4020246
:1009A2008003020A49755564C0E07401141200C73D
:1009B200D0E0C083C082C0E090045D1200BAD0E0F3
:1009C200D082D083C083C082C0E090043F1200BABC
:1009D200D0E0D082D083C0E0740E141200C5D0E003
:1009E200E551120501E553C0E0740E141200C7D0A0
:1009F200E01205011200E21205D27534C07535C647
:100A020075362D7537001201EA200003020B9B8513
:100A12004C347535007536007537007538107539E8
:100A220027753A00753B001202E98538348539355D
:100A3200853A36853B371202063000067548037543
:100A42005100D205020B9BB40365755505C0E074D5
:100A520001141200C7D0E0C083C082C0E090046AD3
:100A62001200BAD0E0D082D083C083C082C0E090AE
:100A7200043F1200BAD0E0D082D083C0E0740E14DA
:100A82001200C5D0E0E551120501E553C0E0740E35
:100A9200141200C7D0E01205011200E21205D2E5DD
:100AA20051B54D08754804755100D205020B9BB42F
:100AB2000472755500C0E07401141200C7D0E0C082
:100AC20083C082C0E09004711200BAD0E0D082D01C
:100AD20083C083C082C0E090043F1200BAD0E0D04D
:100AE20082D083C0E0740E141200C5D0E0E551122A
:100AF2000501E553C0E0740E141200C7D0E01205E0
:100B0200011200E21205D27534207535A17536073F
:100B12007537001201EA300006754805755100D29A
:100B220005020B9BB4056CC0E07401141200C7D01F
:100B3200E0C083C082C0E09004791200BAD0E0D055
:100B420082D083C083C082C0E090043F1200BAD03A
:100B5200E0D082D083C0E0740E141200C5D0E0E56C
:100B620051120501E553C0E0740E141200C7D0E023
:100B7200120501C083C082C0E090043F1200BAD0C7
:100B8200E0D082D083E551B405067548001207DA39
:100B9200020B9B7548001207DA02080A22755500FB
:100BA200E549D206D207D208D209D20AD295C29317
:100BB200C281C282C283C280209548C0027A3212A8
:100BC2000038D00220953CD293D281D282D283D2F5
:100BD20080C293A2959206D293C281A2959207D225
:100BE20081C282A2959208D282C283A2959209D230
:100BF20083C280A295920AD28020070704F549C2D7
:100C020005D281D206D207D208D209D20AD295C21F
:100C120093C281C282C283C280209560C0027A32AE
:100C2200120038D002209554D293D281D282D2833C
:100C3200D280C293A2959206D293C281A2959207C4
:100C4200D281C282A2959208D282C283A2959209CF
:100C5200D283C280A295920AD28020091FB4000FCB
:100C6200E54B2405F54BB45F13742DF54B800DE570
:100C72004D2405F54DB45F04742DF54DD206D2070F
:100C8200D208D209D20AD295C293C281C282C28349
:100C9200C280209560C0027A32120038D0022095BC
:100CA20054D293D281D282D283D280C293A295921D
:100CB20006D293C281A2959207D281C282A2959254
:100CC20008D282C283A2959209D283C280A295924F
:100CD2000AD28020081FB4000FE54A2405F54AB461
:100CE200FF137450F54A800DE54C2405F54CB4FF12
:100CF200047450F54CD282E549B40069C0E0740135
:100D0200141200C7D0E0C083C082C0E090040D126C
:100D120000BAD0E0D082D083E54A120501C083C078
:100D220082C0E090043F1200BAD0E0D082D083C0EB
:100D3200E07401141200C5D0E0C083C082C0E0900C
:100D420004011200BAD0E0D082D083E54B12050133
:100D5200C083C082C0E090043F1200BAD0E0D082CB
:100D6200D083020DD9B40169C0E07401141200C726
:100D7200D0E0C083C082C0E09004251200BAD0E067
:100D8200D082D083E54C120501C083C082C0E090BE
:100D9200043F1200BAD0E0D082D083C0E0740114C4
:100DA2001200C5D0E0C083C082C0E09004191200D6
:100DB200BAD0E0D082D083E54D120501C083C08253
:100DC200C0E090043F1200BAD0E0D082D083020D7E
:100DD200D9754900020DD92275817F120749120087
:100DE20087C292C0E07401141200C7D0E0C083C071
:100DF20082C0E09003DF1200BAD0E0D082D083C07C
:100E0200E07401141200C5D0E0C083C082C0E0903B
:100E120003F01200BAD0E0D082D083755500C2929E
:100E2200D206D207D208D209D20AD295C293C2817F
:100E3200C282C283C280209564C0027A3212003814
:100E4200D002209558D293D281D282D283D280C24C
:100E520093A2959206D293C281A2959207D281C2A1
:100E620082A2959208D282C283A2959209D283C2AB
:100E720080A295920AD280200623D204D205753C24
:100E820000753D00753E00753F0075400012070178
:100E9200740D1204EE740A1204EE020F0CD2933097
:100EA2000106120B9F020E22D206D207D208D209E5
:100EB200D20AD295C293C281C282C283C2802095D5
:100EC20044C0027A32120038D002209538D293D22E
:100ED20081D282D283D280C293A2959206D293C249
:100EE20081A2959207D281C282A2959208D282C231
:100EF20083A2959209D283C280A295920AD28020BF
:100F02000703020F51D281020E22C201D202C0E0B7
:100F12007401141200C7D0E0C083C082C0E0900404
:100F22003F1200BAD0E0D082D083C0E07401141224
:100F320000C5D0E0C083C082C0E090043F1200BA76
:100F4200D0E0D082D08312054F12080A1207DAD2FB
:070F520001020E22020DDA7C
:00000001FF
