:100000000204CB2A2A2A2041444320544553542039
:100010002A2A2A00562870696E203134293D202072
:0500200020202020005B
:10002500C000788500D8FDD00022C000C001792825
:100035007868D8FED9FADAF6D001D00022D2941227
:100045000025C29422A2E79283A2E69282A2E592BB
:1000550081A2E49280120042120025A2E39283A2BB
:10006500E29282A2E19281A2E0928012004222D223
:100075009302004AC29302004AC294C0027A28122F
:10008500002FD00274331200797433120079743260
:100095001200797428120079740C12007974011217
:1000A5000079C0027A0212002FD00222E493600682
:1000B500120074A380F62244404480020079C0E017
:1000C500E8C4540F4430120074E8540F4430120051
:0400D50074D0E022E1
:1000D900C0E0C0D0C000C001C002E4F538F539F570
:1000E9003AF53BF53C7A20E533A2E779047830E626
:1000F90033F608D9FA79057838E636D4F608D9F905
:10010900DAE5D002D001D000D0D0D0E022C0E0C0E2
:10011900D0C000C001C002E4F538F539F53AF53B25
:10012900F53C7A20E533A2E779047830E633F6081E
:10013900D9FA79057838C0D0E6243320E70224D0EB
:1001490020E30224FDD0D033F608D9EADAD6D0026A
:10015900D001D000D0D0D0E022C0E0C0D0C000C0D3
:1001690001C0027A207905C3783CE613C0D030E794
:100179000224D030E30224FDF618D0D0D9EC79045A
:100189007833E613F618D9FADADBD002D001D000B9
:10019900D0D0D0E022C0E0C0D0E5302534F530E53C
:1001A900313535F531E5323536F532E5333537F563
:1001B90033D0D0D0E022C0E0C0D0C3E5309534F5CB
:1001C90030E5319535F531E5329536F532E533953A
:1001D90037F533D0D0D0E022C0E0C0D0C3E53095A8
:1001E90034E5319535E5329536E53395379200D0CA
:1001F900D0D0E022C0E0C0D0C3E5349530E53595D4
:1002090031E5369532E53795339200D0D0D0E022EA
:10021900C0E0C0D0C200C3E53495307014E535950F
:1002290031700EE53695327008E53795337002D294
:1002390000D0D0D0E0221202192000030201FD22D1
:100249001202192000030201E122C0E0C0F0C0D06F
:10025900C000C001C002C003E5308534F0A4F8A98C
:10026900F0E5318534F0A429F9E435F0FAE5308573
:1002790035F0A429F9E5F03AFAE433FBE53285349F
:10028900F0A42AFAE5F03BFBE5318535F0A42AFA1A
:10029900E5F03BFBE5308536F0A42AFAE5F03BFBB7
:1002A900E5338534F0A42BFBE5328535F0A42BFB2F
:1002B900E5318536F0A42BFBE5308537F0A42BFB1F
:1002C9008B338A3289318830D003D002D001D000F3
:1002D900D0D0D0F0D0E022C0E0C0D0C000C001C072
:1002E90002C003C0047C20E4F8F9FAFBC3E530330B
:1002F900F530E53133F531E53233F532E53333F5B0
:1003090033E833F8E933F9EA33FAEB33FBC3E89519
:1003190034E99535EA9536EB95374013E89534F885
:10032900E99535F9EA9536FAEB9537FB433001DC67
:10033900BBD004D003D002D001D000D0D0D0E0226D
:1003490075AC0075AD0075B30075B40075B1007575
:10035900B200438E1043878075985253C4DF538986
:100369000F438920758DF7D28EC28C438E0853892D
:10037900F043890143B38253B47D53E8F043E8075E
:1003890075F60043F68143E1012279C87868D8FE01
:10039900D9FA438E1043878075985253C4DF538925
:1003A9000F438920758DF7D28E223099FDC299F5B8
:1003B9009922C0E0E8C4540F44301203B3E8540F43
:1003C90044301203B3D0E022C000A83B1203BBD0D3
:1003D90000C000A83A1203BBD000742E1203B3C0A8
:1003E90000A8391203BBD000C000A8381203BBD043
:1003F9000022C000A83B1203BBD000C000A83A12DB
:1004090003BBD000742E1203B3C000A8391203BB7A
:10041900D000C000A8381203BBD0001204BF22E4E8
:100429009360061203B3A380F62248656C6C6F2CA7
:1004390020576F726C64210D0A00C28CC28D758CB5
:10044900BF758A28D28C308DFD22120443DAFB2233
:10045900C0E07408141200BCD0E0C000A83B120030
:10046900C3D000C000A83A1200C3D000C0E0742E67
:10047900120074D0E0C000A8391200C3D000C00037
:10048900A8381200C3D00022C2EFD2EE30EFFDE54A
:10049900C2540FF8E5C3C4C0E0540FF9D0E054F0DA
:1004A90048F822E4E975F00A8424301203B3E5F030
:1004B90024301203B322E4740D1203B3740A120335
:1004C900B32275817F12034912007E1203939004AF
:1004D90033120428C0E07401141200BED0E0C0E059
:1004E9007401141200BCD0E053E8F043E800120490
:1004F90091883D893E53E8F043E80712049188301A
:1005090089317532007533007534CE75354F7536BE
:1005190000753700120253853D34853E3575360026
:100529007537001202E07534237535037536007589
:10053900370012025375346075355B7536037537AC
:100549000012019E1200D91204591203D17534A95F
:1005590075356A7536007537001201BF1200D95317
:10056900E8F043E801120491883089317532007549
:1005790033007534CE75354F753600753700120264
:1005890053853D34853E357536007537001202E0D6
:100599001200D91203FB7AFA1204537AFA1204539D
:0D05A9007AFA1204537A321204530204F15C
:00000001FF
